{
  "_format": "hh-sol-artifact-1",
  "contractName": "NFT",
  "sourceName": "contracts/NFT.sol",
  "abi": [
    {
      "inputs": [
        {
          "internalType": "address",
          "name": "marketplaceAddress",
          "type": "address"
        }
      ],
      "stateMutability": "nonpayable",
      "type": "constructor"
    },
    {
      "anonymous": false,
      "inputs": [
        {
          "indexed": true,
          "internalType": "address",
          "name": "owner",
          "type": "address"
        },
        {
          "indexed": true,
          "internalType": "address",
          "name": "approved",
          "type": "address"
        },
        {
          "indexed": true,
          "internalType": "uint256",
          "name": "tokenId",
          "type": "uint256"
        }
      ],
      "name": "Approval",
      "type": "event"
    },
    {
      "anonymous": false,
      "inputs": [
        {
          "indexed": true,
          "internalType": "address",
          "name": "owner",
          "type": "address"
        },
        {
          "indexed": true,
          "internalType": "address",
          "name": "operator",
          "type": "address"
        },
        {
          "indexed": false,
          "internalType": "bool",
          "name": "approved",
          "type": "bool"
        }
      ],
      "name": "ApprovalForAll",
      "type": "event"
    },
    {
      "anonymous": false,
      "inputs": [
        {
          "indexed": false,
          "internalType": "uint256",
          "name": "_fromTokenId",
          "type": "uint256"
        },
        {
          "indexed": false,
          "internalType": "uint256",
          "name": "_toTokenId",
          "type": "uint256"
        }
      ],
      "name": "BatchMetadataUpdate",
      "type": "event"
    },
    {
      "anonymous": false,
      "inputs": [
        {
          "indexed": false,
          "internalType": "uint256",
          "name": "_tokenId",
          "type": "uint256"
        }
      ],
      "name": "MetadataUpdate",
      "type": "event"
    },
    {
      "anonymous": false,
      "inputs": [
        {
          "indexed": true,
          "internalType": "address",
          "name": "creator",
          "type": "address"
        },
        {
          "indexed": true,
          "internalType": "uint256",
          "name": "tokenId",
          "type": "uint256"
        },
        {
          "indexed": false,
          "internalType": "string",
          "name": "tokenURI",
          "type": "string"
        },
        {
          "indexed": false,
          "internalType": "string",
          "name": "eventType",
          "type": "string"
        },
        {
          "indexed": false,
          "internalType": "string",
          "name": "message",
          "type": "string"
        }
      ],
      "name": "NFTCreated",
      "type": "event"
    },
    {
      "anonymous": false,
      "inputs": [
        {
          "indexed": true,
          "internalType": "address",
          "name": "from",
          "type": "address"
        },
        {
          "indexed": true,
          "internalType": "address",
          "name": "to",
          "type": "address"
        },
        {
          "indexed": true,
          "internalType": "uint256",
          "name": "tokenId",
          "type": "uint256"
        }
      ],
      "name": "Transfer",
      "type": "event"
    },
    {
      "inputs": [
        {
          "internalType": "address",
          "name": "to",
          "type": "address"
        },
        {
          "internalType": "uint256",
          "name": "tokenId",
          "type": "uint256"
        }
      ],
      "name": "approve",
      "outputs": [],
      "stateMutability": "nonpayable",
      "type": "function"
    },
    {
      "inputs": [
        {
          "internalType": "address",
          "name": "owner",
          "type": "address"
        }
      ],
      "name": "balanceOf",
      "outputs": [
        {
          "internalType": "uint256",
          "name": "",
          "type": "uint256"
        }
      ],
      "stateMutability": "view",
      "type": "function"
    },
    {
      "inputs": [
        {
          "internalType": "string",
          "name": "tokenURI",
          "type": "string"
        }
      ],
      "name": "createToken",
      "outputs": [
        {
          "internalType": "uint256",
          "name": "",
          "type": "uint256"
        }
      ],
      "stateMutability": "nonpayable",
      "type": "function"
    },
    {
      "inputs": [
        {
          "internalType": "uint256",
          "name": "tokenId",
          "type": "uint256"
        }
      ],
      "name": "getApproved",
      "outputs": [
        {
          "internalType": "address",
          "name": "",
          "type": "address"
        }
      ],
      "stateMutability": "view",
      "type": "function"
    },
    {
      "inputs": [],
      "name": "getCurrentTokenId",
      "outputs": [
        {
          "internalType": "uint256",
          "name": "",
          "type": "uint256"
        }
      ],
      "stateMutability": "view",
      "type": "function"
    },
    {
      "inputs": [
        {
          "internalType": "address",
          "name": "owner",
          "type": "address"
        },
        {
          "internalType": "address",
          "name": "operator",
          "type": "address"
        }
      ],
      "name": "isApprovedForAll",
      "outputs": [
        {
          "internalType": "bool",
          "name": "",
          "type": "bool"
        }
      ],
      "stateMutability": "view",
      "type": "function"
    },
    {
      "inputs": [],
      "name": "name",
      "outputs": [
        {
          "internalType": "string",
          "name": "",
          "type": "string"
        }
      ],
      "stateMutability": "view",
      "type": "function"
    },
    {
      "inputs": [
        {
          "internalType": "uint256",
          "name": "tokenId",
          "type": "uint256"
        }
      ],
      "name": "ownerOf",
      "outputs": [
        {
          "internalType": "address",
          "name": "",
          "type": "address"
        }
      ],
      "stateMutability": "view",
      "type": "function"
    },
    {
      "inputs": [
        {
          "internalType": "address",
          "name": "from",
          "type": "address"
        },
        {
          "internalType": "address",
          "name": "to",
          "type": "address"
        },
        {
          "internalType": "uint256",
          "name": "tokenId",
          "type": "uint256"
        }
      ],
      "name": "safeTransferFrom",
      "outputs": [],
      "stateMutability": "nonpayable",
      "type": "function"
    },
    {
      "inputs": [
        {
          "internalType": "address",
          "name": "from",
          "type": "address"
        },
        {
          "internalType": "address",
          "name": "to",
          "type": "address"
        },
        {
          "internalType": "uint256",
          "name": "tokenId",
          "type": "uint256"
        },
        {
          "internalType": "bytes",
          "name": "data",
          "type": "bytes"
        }
      ],
      "name": "safeTransferFrom",
      "outputs": [],
      "stateMutability": "nonpayable",
      "type": "function"
    },
    {
      "inputs": [
        {
          "internalType": "address",
          "name": "operator",
          "type": "address"
        },
        {
          "internalType": "bool",
          "name": "approved",
          "type": "bool"
        }
      ],
      "name": "setApprovalForAll",
      "outputs": [],
      "stateMutability": "nonpayable",
      "type": "function"
    },
    {
      "inputs": [
        {
          "internalType": "bytes4",
          "name": "interfaceId",
          "type": "bytes4"
        }
      ],
      "name": "supportsInterface",
      "outputs": [
        {
          "internalType": "bool",
          "name": "",
          "type": "bool"
        }
      ],
      "stateMutability": "view",
      "type": "function"
    },
    {
      "inputs": [],
      "name": "symbol",
      "outputs": [
        {
          "internalType": "string",
          "name": "",
          "type": "string"
        }
      ],
      "stateMutability": "view",
      "type": "function"
    },
    {
      "inputs": [
        {
          "internalType": "uint256",
          "name": "tokenId",
          "type": "uint256"
        }
      ],
      "name": "tokenURI",
      "outputs": [
        {
          "internalType": "string",
          "name": "",
          "type": "string"
        }
      ],
      "stateMutability": "view",
      "type": "function"
    },
    {
      "inputs": [
        {
          "internalType": "address",
          "name": "from",
          "type": "address"
        },
        {
          "internalType": "address",
          "name": "to",
          "type": "address"
        },
        {
          "internalType": "uint256",
          "name": "tokenId",
          "type": "uint256"
        }
      ],
      "name": "transferFrom",
      "outputs": [],
      "stateMutability": "nonpayable",
      "type": "function"
    }
  ],
  "bytecode": "0x60806040523480156200001157600080fd5b50604051620018df380380620018df833981016040819052620000349162000167565b60408051808201825260098152684d657461766572736560b81b6020808301918252835180850190945260048452634d54565360e01b9084015281519192916200008191600091620000c1565b50805162000097906001906020840190620000c1565b5050600880546001600160a01b0319166001600160a01b03939093169290921790915550620001d4565b828054620000cf9062000197565b90600052602060002090601f016020900481019282620000f357600085556200013e565b82601f106200010e57805160ff19168380011785556200013e565b828001600101855582156200013e579182015b828111156200013e57825182559160200191906001019062000121565b506200014c92915062000150565b5090565b5b808211156200014c576000815560010162000151565b60006020828403121562000179578081fd5b81516001600160a01b038116811462000190578182fd5b9392505050565b600181811c90821680620001ac57607f821691505b60208210811415620001ce57634e487b7160e01b600052602260045260246000fd5b50919050565b6116fb80620001e46000396000f3fe608060405234801561001057600080fd5b50600436106100f55760003560e01c80635618923611610097578063a22cb46511610066578063a22cb465146101f4578063b88d4fde14610207578063c87b56dd1461021a578063e985e9c51461022d57600080fd5b806356189236146101be5780636352211e146101c657806370a08231146101d957806395d89b41146101ec57600080fd5b8063095ea7b3116100d3578063095ea7b31461016257806323b872dd1461017757806342842e0e1461018a57806345576f941461019d57600080fd5b806301ffc9a7146100fa57806306fdde0314610122578063081812fc14610137575b600080fd5b61010d610108366004611394565b610269565b60405190151581526020015b60405180910390f35b61012a610294565b60405161011991906114c2565b61014a610145366004611412565b610326565b6040516001600160a01b039091168152602001610119565b61017561017036600461136b565b61034d565b005b61017561018536600461127d565b610468565b61017561019836600461127d565b610499565b6101b06101ab3660046113cc565b6104b4565b604051908152602001610119565b6101b0610544565b61014a6101d4366004611412565b610554565b6101b06101e7366004611231565b6105b4565b61012a61063a565b610175610202366004611331565b610649565b6101756102153660046112b8565b610658565b61012a610228366004611412565b610690565b61010d61023b36600461124b565b6001600160a01b03918216600090815260056020908152604080832093909416825291909152205460ff1690565b60006001600160e01b03198216632483248360e11b148061028e575061028e826107a1565b92915050565b6060600080546102a39061165e565b80601f01602080910402602001604051908101604052809291908181526020018280546102cf9061165e565b801561031c5780601f106102f15761010080835404028352916020019161031c565b820191906000526020600020905b8154815290600101906020018083116102ff57829003601f168201915b5050505050905090565b6000610331826107f1565b506000908152600460205260409020546001600160a01b031690565b600061035882610554565b9050806001600160a01b0316836001600160a01b031614156103cb5760405162461bcd60e51b815260206004820152602160248201527f4552433732313a20617070726f76616c20746f2063757272656e74206f776e656044820152603960f91b60648201526084015b60405180910390fd5b336001600160a01b03821614806103e757506103e7813361023b565b6104595760405162461bcd60e51b815260206004820152603d60248201527f4552433732313a20617070726f76652063616c6c6572206973206e6f7420746f60448201527f6b656e206f776e6572206f7220617070726f76656420666f7220616c6c00000060648201526084016103c2565b6104638383610853565b505050565b61047233826108c1565b61048e5760405162461bcd60e51b81526004016103c29061154e565b61046383838361093f565b61046383838360405180602001604052806000815250610658565b60006104c4600780546001019055565b60006104cf60075490565b90506104db3382610aa3565b6104e58184610c2e565b6008546104fc906001600160a01b03166001610649565b80336001600160a01b03167f91c7184b9305626517123cb1a83d5392b49ec32c18c1afa822bf4b58adfe95e18560405161053691906114d5565b60405180910390a392915050565b600061054f60075490565b905090565b6000818152600260205260408120546001600160a01b03168061028e5760405162461bcd60e51b8152602060048201526018602482015277115490cdcc8c4e881a5b9d985b1a59081d1bdad95b88125160421b60448201526064016103c2565b60006001600160a01b03821661061e5760405162461bcd60e51b815260206004820152602960248201527f4552433732313a2061646472657373207a65726f206973206e6f7420612076616044820152683634b21037bbb732b960b91b60648201526084016103c2565b506001600160a01b031660009081526003602052604090205490565b6060600180546102a39061165e565b610654338383610d00565b5050565b61066233836108c1565b61067e5760405162461bcd60e51b81526004016103c29061154e565b61068a84848484610dcf565b50505050565b606061069b826107f1565b600082815260066020526040812080546106b49061165e565b80601f01602080910402602001604051908101604052809291908181526020018280546106e09061165e565b801561072d5780601f106107025761010080835404028352916020019161072d565b820191906000526020600020905b81548152906001019060200180831161071057829003601f168201915b50505050509050600061074b60408051602081019091526000815290565b905080516000141561075e575092915050565b815115610790578082604051602001610778929190611456565b60405160208183030381529060405292505050919050565b61079984610e02565b949350505050565b60006001600160e01b031982166380ac58cd60e01b14806107d257506001600160e01b03198216635b5e139f60e01b145b8061028e57506301ffc9a760e01b6001600160e01b031983161461028e565b6000818152600260205260409020546001600160a01b03166108505760405162461bcd60e51b8152602060048201526018602482015277115490cdcc8c4e881a5b9d985b1a59081d1bdad95b88125160421b60448201526064016103c2565b50565b600081815260046020526040902080546001600160a01b0319166001600160a01b038416908117909155819061088882610554565b6001600160a01b03167f8c5be1e5ebec7d5bd14f71427d1e84f3dd0314c0f7b2291e5b200ac8c7c3b92560405160405180910390a45050565b6000806108cd83610554565b9050806001600160a01b0316846001600160a01b0316148061091457506001600160a01b0380821660009081526005602090815260408083209388168352929052205460ff165b806107995750836001600160a01b031661092d84610326565b6001600160a01b031614949350505050565b826001600160a01b031661095282610554565b6001600160a01b0316146109785760405162461bcd60e51b81526004016103c2906115ed565b6001600160a01b0382166109da5760405162461bcd60e51b8152602060048201526024808201527f4552433732313a207472616e7366657220746f20746865207a65726f206164646044820152637265737360e01b60648201526084016103c2565b826001600160a01b03166109ed82610554565b6001600160a01b031614610a135760405162461bcd60e51b81526004016103c2906115ed565b600081815260046020908152604080832080546001600160a01b03199081169091556001600160a01b0387811680865260038552838620805460001901905590871680865283862080546001019055868652600290945282852080549092168417909155905184937fddf252ad1be2c89b69c2b068fc378daa952ba7f163c4a11628f55a4df523b3ef91a4505050565b6001600160a01b038216610af95760405162461bcd60e51b815260206004820181905260248201527f4552433732313a206d696e7420746f20746865207a65726f206164647265737360448201526064016103c2565b6000818152600260205260409020546001600160a01b031615610b5e5760405162461bcd60e51b815260206004820152601c60248201527f4552433732313a20746f6b656e20616c7265616479206d696e7465640000000060448201526064016103c2565b6000818152600260205260409020546001600160a01b031615610bc35760405162461bcd60e51b815260206004820152601c60248201527f4552433732313a20746f6b656e20616c7265616479206d696e7465640000000060448201526064016103c2565b6001600160a01b038216600081815260036020908152604080832080546001019055848352600290915280822080546001600160a01b0319168417905551839291907fddf252ad1be2c89b69c2b068fc378daa952ba7f163c4a11628f55a4df523b3ef908290a45050565b6000828152600260205260409020546001600160a01b0316610ca95760405162461bcd60e51b815260206004820152602e60248201527f45524337323155524953746f726167653a2055524920736574206f66206e6f6e60448201526d32bc34b9ba32b73a103a37b5b2b760911b60648201526084016103c2565b60008281526006602090815260409091208251610cc892840190611106565b506040518281527ff8e1a15aba9398e019f0b49df1a4fde98ee17ae345cb5f6b5e2c27f5033e8ce79060200160405180910390a15050565b816001600160a01b0316836001600160a01b03161415610d625760405162461bcd60e51b815260206004820152601960248201527f4552433732313a20617070726f766520746f2063616c6c65720000000000000060448201526064016103c2565b6001600160a01b03838116600081815260056020908152604080832094871680845294825291829020805460ff191686151590811790915591519182527f17307eab39ab6107e8899845ad3d59bd9653f200f220920489ca2b5937696c31910160405180910390a3505050565b610dda84848461093f565b610de684848484610e76565b61068a5760405162461bcd60e51b81526004016103c29061159b565b6060610e0d826107f1565b6000610e2460408051602081019091526000815290565b90506000815111610e445760405180602001604052806000815250610e6f565b80610e4e84610f83565b604051602001610e5f929190611456565b6040516020818303038152906040525b9392505050565b60006001600160a01b0384163b15610f7857604051630a85bd0160e11b81526001600160a01b0385169063150b7a0290610eba903390899088908890600401611485565b602060405180830381600087803b158015610ed457600080fd5b505af1925050508015610f04575060408051601f3d908101601f19168201909252610f01918101906113b0565b60015b610f5e573d808015610f32576040519150601f19603f3d011682016040523d82523d6000602084013e610f37565b606091505b508051610f565760405162461bcd60e51b81526004016103c29061159b565b805181602001fd5b6001600160e01b031916630a85bd0160e11b149050610799565b506001949350505050565b60606000610f908361102e565b600101905060008167ffffffffffffffff811115610fbe57634e487b7160e01b600052604160045260246000fd5b6040519080825280601f01601f191660200182016040528015610fe8576020820181803683370190505b5090508181016020015b600019016f181899199a1a9b1b9c1cb0b131b232b360811b600a86061a8153600a850494508461102157611026565b610ff2565b509392505050565b60008072184f03e93ff9f4daa797ed6e38ed64bf6a1f0160401b831061106d5772184f03e93ff9f4daa797ed6e38ed64bf6a1f0160401b830492506040015b6d04ee2d6d415b85acef81000000008310611099576d04ee2d6d415b85acef8100000000830492506020015b662386f26fc1000083106110b757662386f26fc10000830492506010015b6305f5e10083106110cf576305f5e100830492506008015b61271083106110e357612710830492506004015b606483106110f5576064830492506002015b600a831061028e5760010192915050565b8280546111129061165e565b90600052602060002090601f016020900481019282611134576000855561117a565b82601f1061114d57805160ff191683800117855561117a565b8280016001018555821561117a579182015b8281111561117a57825182559160200191906001019061115f565b5061118692915061118a565b5090565b5b80821115611186576000815560010161118b565b600067ffffffffffffffff808411156111ba576111ba611699565b604051601f8501601f19908116603f011681019082821181831017156111e2576111e2611699565b816040528093508581528686860111156111fb57600080fd5b858560208301376000602087830101525050509392505050565b80356001600160a01b038116811461122c57600080fd5b919050565b600060208284031215611242578081fd5b610e6f82611215565b6000806040838503121561125d578081fd5b61126683611215565b915061127460208401611215565b90509250929050565b600080600060608486031215611291578081fd5b61129a84611215565b92506112a860208501611215565b9150604084013590509250925092565b600080600080608085870312156112cd578081fd5b6112d685611215565b93506112e460208601611215565b925060408501359150606085013567ffffffffffffffff811115611306578182fd5b8501601f81018713611316578182fd5b6113258782356020840161119f565b91505092959194509250565b60008060408385031215611343578182fd5b61134c83611215565b915060208301358015158114611360578182fd5b809150509250929050565b6000806040838503121561137d578182fd5b61138683611215565b946020939093013593505050565b6000602082840312156113a5578081fd5b8135610e6f816116af565b6000602082840312156113c1578081fd5b8151610e6f816116af565b6000602082840312156113dd578081fd5b813567ffffffffffffffff8111156113f3578182fd5b8201601f81018413611403578182fd5b6107998482356020840161119f565b600060208284031215611423578081fd5b5035919050565b60008151808452611442816020860160208601611632565b601f01601f19169290920160200192915050565b60008351611468818460208801611632565b83519083019061147c818360208801611632565b01949350505050565b6001600160a01b03858116825284166020820152604081018390526080606082018190526000906114b89083018461142a565b9695505050505050565b602081526000610e6f602083018461142a565b6060815260006114e8606083018461142a565b828103806020850152600c82526b21a922a0aa22afaa27a5a2a760a11b602083015260408101604085015250601860408201527f4e46542043726561746564205375636365737366756c6c79000000000000000060608201526080810191505092915050565b6020808252602d908201527f4552433732313a2063616c6c6572206973206e6f7420746f6b656e206f776e6560408201526c1c881bdc88185c1c1c9bdd9959609a1b606082015260800190565b60208082526032908201527f4552433732313a207472616e7366657220746f206e6f6e20455243373231526560408201527131b2b4bb32b91034b6b83632b6b2b73a32b960711b606082015260800190565b60208082526025908201527f4552433732313a207472616e736665722066726f6d20696e636f72726563742060408201526437bbb732b960d91b606082015260800190565b60005b8381101561164d578181015183820152602001611635565b8381111561068a5750506000910152565b600181811c9082168061167257607f821691505b6020821081141561169357634e487b7160e01b600052602260045260246000fd5b50919050565b634e487b7160e01b600052604160045260246000fd5b6001600160e01b03198116811461085057600080fdfea264697066735822122087efb6ce42f8778ca6f90e4b2f21f2a797442bc5c88701cfec6c024ac815394564736f6c63430008040033",
  "linkReferences": {},
  "deployedLinkReferences": {}
}