{
  "_format": "hh-sol-artifact-1",
  "contractName": "NFTMarketplace",
  "sourceName": "contracts/NFTMarketplace.sol",
  "abi": [
    {
      "inputs": [],
      "stateMutability": "nonpayable",
      "type": "constructor"
    },
    {
      "anonymous": false,
      "inputs": [
        {
          "indexed": true,
          "internalType": "uint256",
          "name": "itemId",
          "type": "uint256"
        },
        {
          "indexed": true,
          "internalType": "address",
          "name": "nftContract",
          "type": "address"
        },
        {
          "indexed": true,
          "internalType": "uint256",
          "name": "tokenId",
          "type": "uint256"
        },
        {
          "indexed": false,
          "internalType": "address",
          "name": "seller",
          "type": "address"
        },
        {
          "indexed": false,
          "internalType": "address",
          "name": "owner",
          "type": "address"
        },
        {
          "indexed": false,
          "internalType": "uint256",
          "name": "price",
          "type": "uint256"
        },
        {
          "indexed": false,
          "internalType": "bool",
          "name": "sold",
          "type": "bool"
        }
      ],
      "name": "MarketItemCreated",
      "type": "event"
    },
    {
      "anonymous": false,
      "inputs": [
        {
          "indexed": true,
          "internalType": "uint256",
          "name": "itemId",
          "type": "uint256"
        },
        {
          "indexed": true,
          "internalType": "address",
          "name": "nftContract",
          "type": "address"
        },
        {
          "indexed": true,
          "internalType": "uint256",
          "name": "tokenId",
          "type": "uint256"
        },
        {
          "indexed": false,
          "internalType": "address",
          "name": "buyer",
          "type": "address"
        },
        {
          "indexed": false,
          "internalType": "address",
          "name": "seller",
          "type": "address"
        },
        {
          "indexed": false,
          "internalType": "uint256",
          "name": "price",
          "type": "uint256"
        },
        {
          "indexed": false,
          "internalType": "uint256",
          "name": "marketplaceFee",
          "type": "uint256"
        },
        {
          "indexed": false,
          "internalType": "uint256",
          "name": "sellerPayment",
          "type": "uint256"
        }
      ],
      "name": "MarketItemSold",
      "type": "event"
    },
    {
      "anonymous": false,
      "inputs": [
        {
          "indexed": true,
          "internalType": "address",
          "name": "recipient",
          "type": "address"
        },
        {
          "indexed": true,
          "internalType": "uint256",
          "name": "itemId",
          "type": "uint256"
        },
        {
          "indexed": false,
          "internalType": "uint256",
          "name": "amount",
          "type": "uint256"
        },
        {
          "indexed": false,
          "internalType": "string",
          "name": "eventType",
          "type": "string"
        }
      ],
      "name": "PaymentProcessed",
      "type": "event"
    },
    {
      "inputs": [
        {
          "internalType": "address",
          "name": "nftContract",
          "type": "address"
        },
        {
          "internalType": "uint256",
          "name": "itemId",
          "type": "uint256"
        }
      ],
      "name": "buyNFT",
      "outputs": [],
      "stateMutability": "payable",
      "type": "function"
    },
    {
      "inputs": [],
      "name": "claimPayment",
      "outputs": [],
      "stateMutability": "nonpayable",
      "type": "function"
    },
    {
      "inputs": [],
      "name": "claimRevenue",
      "outputs": [],
      "stateMutability": "nonpayable",
      "type": "function"
    },
    {
      "inputs": [
        {
          "internalType": "address",
          "name": "nftContract",
          "type": "address"
        },
        {
          "internalType": "uint256",
          "name": "tokenId",
          "type": "uint256"
        },
        {
          "internalType": "uint256",
          "name": "price",
          "type": "uint256"
        }
      ],
      "name": "createMarketItem",
      "outputs": [],
      "stateMutability": "payable",
      "type": "function"
    },
    {
      "inputs": [
        {
          "internalType": "address",
          "name": "nftContract",
          "type": "address"
        },
        {
          "internalType": "uint256",
          "name": "itemId",
          "type": "uint256"
        }
      ],
      "name": "createMarketSale",
      "outputs": [],
      "stateMutability": "payable",
      "type": "function"
    },
    {
      "inputs": [],
      "name": "enableAutoClaim",
      "outputs": [
        {
          "internalType": "bool",
          "name": "",
          "type": "bool"
        }
      ],
      "stateMutability": "view",
      "type": "function"
    },
    {
      "inputs": [],
      "name": "fetchItemsCreated",
      "outputs": [
        {
          "components": [
            {
              "internalType": "uint256",
              "name": "itemId",
              "type": "uint256"
            },
            {
              "internalType": "address",
              "name": "nftContract",
              "type": "address"
            },
            {
              "internalType": "uint256",
              "name": "tokenId",
              "type": "uint256"
            },
            {
              "internalType": "address payable",
              "name": "seller",
              "type": "address"
            },
            {
              "internalType": "address payable",
              "name": "owner",
              "type": "address"
            },
            {
              "internalType": "uint256",
              "name": "price",
              "type": "uint256"
            },
            {
              "internalType": "bool",
              "name": "sold",
              "type": "bool"
            }
          ],
          "internalType": "struct NFTMarketplace.MarketItem[]",
          "name": "",
          "type": "tuple[]"
        }
      ],
      "stateMutability": "view",
      "type": "function"
    },
    {
      "inputs": [],
      "name": "fetchMarketItems",
      "outputs": [
        {
          "components": [
            {
              "internalType": "uint256",
              "name": "itemId",
              "type": "uint256"
            },
            {
              "internalType": "address",
              "name": "nftContract",
              "type": "address"
            },
            {
              "internalType": "uint256",
              "name": "tokenId",
              "type": "uint256"
            },
            {
              "internalType": "address payable",
              "name": "seller",
              "type": "address"
            },
            {
              "internalType": "address payable",
              "name": "owner",
              "type": "address"
            },
            {
              "internalType": "uint256",
              "name": "price",
              "type": "uint256"
            },
            {
              "internalType": "bool",
              "name": "sold",
              "type": "bool"
            }
          ],
          "internalType": "struct NFTMarketplace.MarketItem[]",
          "name": "",
          "type": "tuple[]"
        }
      ],
      "stateMutability": "view",
      "type": "function"
    },
    {
      "inputs": [],
      "name": "fetchMyNFTs",
      "outputs": [
        {
          "components": [
            {
              "internalType": "uint256",
              "name": "itemId",
              "type": "uint256"
            },
            {
              "internalType": "address",
              "name": "nftContract",
              "type": "address"
            },
            {
              "internalType": "uint256",
              "name": "tokenId",
              "type": "uint256"
            },
            {
              "internalType": "address payable",
              "name": "seller",
              "type": "address"
            },
            {
              "internalType": "address payable",
              "name": "owner",
              "type": "address"
            },
            {
              "internalType": "uint256",
              "name": "price",
              "type": "uint256"
            },
            {
              "internalType": "bool",
              "name": "sold",
              "type": "bool"
            }
          ],
          "internalType": "struct NFTMarketplace.MarketItem[]",
          "name": "",
          "type": "tuple[]"
        }
      ],
      "stateMutability": "view",
      "type": "function"
    },
    {
      "inputs": [],
      "name": "getContractBalance",
      "outputs": [
        {
          "internalType": "uint256",
          "name": "",
          "type": "uint256"
        }
      ],
      "stateMutability": "view",
      "type": "function"
    },
    {
      "inputs": [],
      "name": "getListingPrice",
      "outputs": [
        {
          "internalType": "uint256",
          "name": "",
          "type": "uint256"
        }
      ],
      "stateMutability": "view",
      "type": "function"
    },
    {
      "inputs": [
        {
          "internalType": "uint256",
          "name": "itemId",
          "type": "uint256"
        }
      ],
      "name": "getMarketItem",
      "outputs": [
        {
          "components": [
            {
              "internalType": "uint256",
              "name": "itemId",
              "type": "uint256"
            },
            {
              "internalType": "address",
              "name": "nftContract",
              "type": "address"
            },
            {
              "internalType": "uint256",
              "name": "tokenId",
              "type": "uint256"
            },
            {
              "internalType": "address payable",
              "name": "seller",
              "type": "address"
            },
            {
              "internalType": "address payable",
              "name": "owner",
              "type": "address"
            },
            {
              "internalType": "uint256",
              "name": "price",
              "type": "uint256"
            },
            {
              "internalType": "bool",
              "name": "sold",
              "type": "bool"
            }
          ],
          "internalType": "struct NFTMarketplace.MarketItem",
          "name": "",
          "type": "tuple"
        }
      ],
      "stateMutability": "view",
      "type": "function"
    },
    {
      "inputs": [
        {
          "internalType": "address",
          "name": "seller",
          "type": "address"
        }
      ],
      "name": "getPendingWithdrawal",
      "outputs": [
        {
          "internalType": "uint256",
          "name": "",
          "type": "uint256"
        }
      ],
      "stateMutability": "view",
      "type": "function"
    },
    {
      "inputs": [
        {
          "internalType": "uint256",
          "name": "itemId",
          "type": "uint256"
        }
      ],
      "name": "getSellerForItem",
      "outputs": [
        {
          "internalType": "address",
          "name": "",
          "type": "address"
        }
      ],
      "stateMutability": "view",
      "type": "function"
    },
    {
      "inputs": [
        {
          "internalType": "uint256",
          "name": "amount",
          "type": "uint256"
        }
      ],
      "name": "withdrawAmount",
      "outputs": [],
      "stateMutability": "nonpayable",
      "type": "function"
    },
    {
      "inputs": [],
      "name": "withdrawPayment",
      "outputs": [],
      "stateMutability": "nonpayable",
      "type": "function"
    }
  ],
  "bytecode": "0x6080604052662386f26fc1000060045534801561001b57600080fd5b506001600055600380546001600160a01b03191633179055611879806100426000396000f3fe6080604052600436106100f35760003560e01c80637ee8b2f81161008a578063c23b139e11610059578063c23b139e1461027f578063c7be7a4914610292578063c7dea2f2146102bf578063f064c32e146102d457600080fd5b80637ee8b2f8146101d0578063a118babd14610206578063a82ba76f1461021b578063a85c1d201461022e57600080fd5b8063564f4f76116100c6578063564f4f761461017957806357000c611461018e57806358eb2df5146101aa5780636f9fb98a146101bd57600080fd5b80630562b9f7146100f85780630f08efe01461011a57806312e8558514610145578063202e374014610164575b600080fd5b34801561010457600080fd5b506101186101133660046116f3565b6102e9565b005b34801561012657600080fd5b5061012f6104c0565b60405161013c9190611761565b60405180910390f35b34801561015157600080fd5b506004545b60405190815260200161013c565b34801561017057600080fd5b5061012f610668565b34801561018557600080fd5b5061011861084e565b34801561019a57600080fd5b506040516001815260200161013c565b6101186101b83660046116c1565b6109ad565b3480156101c957600080fd5b5047610156565b3480156101dc57600080fd5b506101566101eb366004611677565b6001600160a01b031660009081526006602052604090205490565b34801561021257600080fd5b50610118610c00565b610118610229366004611698565b610d46565b34801561023a57600080fd5b506102676102493660046116f3565b6000908152600560205260409020600301546001600160a01b031690565b6040516001600160a01b03909116815260200161013c565b61011861028d366004611698565b611217565b34801561029e57600080fd5b506102b26102ad3660046116f3565b611221565b60405161013c91906117af565b3480156102cb57600080fd5b5061011861129e565b3480156102e057600080fd5b5061012f6113df565b6102f16115c5565b600081116103465760405162461bcd60e51b815260206004820152601d60248201527f416d6f756e74206d7573742062652067726561746572207468616e203000000060448201526064015b60405180910390fd5b336000908152600660205260409020548111156103a55760405162461bcd60e51b815260206004820152601c60248201527f496e73756666696369656e742070656e64696e672062616c616e636500000000604482015260640161033d565b33600090815260066020526040812080548392906103c49084906117db565b9091555050604051600090339083908381818185875af1925050503d806000811461040b576040519150601f19603f3d011682016040523d82523d6000602084013e610410565b606091505b50509050806104555760405162461bcd60e51b815260206004820152601160248201527015da5d1a191c985dd85b0819985a5b1959607a1b604482015260640161033d565b6000336001600160a01b0316600080516020611824833981519152846040516104aa918152604060208201819052601290820152711410549512505317d5d2551211149055d05360721b606082015260800190565b60405180910390a3506104bd6001600055565b50565b606060006104cd60015490565b905060006104da60025490565b6001546104e791906117db565b90506000808267ffffffffffffffff81111561051357634e487b7160e01b600052604160045260246000fd5b60405190808252806020026020018201604052801561054c57816020015b61053961161f565b8152602001906001900390816105315790505b50905060005b8481101561065f57600060058161056a8460016117c3565b81526020810191909152604001600020600401546001600160a01b0316141561064d57600061059a8260016117c3565b600081815260056020818152604092839020835160e0810185528154815260018201546001600160a01b0390811693820193909352600282015494810194909452600381015482166060850152600481015490911660808401529081015460a0830152600681015460ff16151560c083015285519293509185908790811061063257634e487b7160e01b600052603260045260246000fd5b60209081029190910101526106486001866117c3565b945050505b80610657816117f2565b915050610552565b50949350505050565b6060600061067560015490565b905060008060005b838110156106d85733600560006106958460016117c3565b81526020810191909152604001600020600401546001600160a01b031614156106c6576106c36001846117c3565b92505b806106d0816117f2565b91505061067d565b5060008267ffffffffffffffff81111561070257634e487b7160e01b600052604160045260246000fd5b60405190808252806020026020018201604052801561073b57816020015b61072861161f565b8152602001906001900390816107205790505b50905060005b8481101561065f5733600560006107598460016117c3565b81526020810191909152604001600020600401546001600160a01b0316141561083c5760006107898260016117c3565b600081815260056020818152604092839020835160e0810185528154815260018201546001600160a01b0390811693820193909352600282015494810194909452600381015482166060850152600481015490911660808401529081015460a0830152600681015460ff16151560c083015285519293509185908790811061082157634e487b7160e01b600052603260045260246000fd5b60209081029190910101526108376001866117c3565b945050505b80610846816117f2565b915050610741565b6108566115c5565b33600090815260066020526040902054806108a95760405162461bcd60e51b81526020600482015260136024820152724e6f20726576656e756520746f20636c61696d60681b604482015260640161033d565b336000818152600660205260408082208290555190919083908381818185875af1925050503d80600081146108fa576040519150601f19603f3d011682016040523d82523d6000602084013e6108ff565b606091505b50509050806109475760405162461bcd60e51b815260206004820152601460248201527314995d995b9d594818db185a5b4819985a5b195960621b604482015260640161033d565b6000336001600160a01b031660008051602061182483398151915284604051610997918152604060208201819052600d908201526c524556454e55455f434c41494d60981b606082015260800190565b60405180910390a350506109ab6001600055565b565b6109b56115c5565b60008111610a055760405162461bcd60e51b815260206004820152601c60248201527f5072696365206d757374206265206174206c6561737420312077656900000000604482015260640161033d565b6004543414610a625760405162461bcd60e51b8152602060048201526024808201527f5072696365206d75737420626520657175616c20746f206c697374696e6720706044820152637269636560e01b606482015260840161033d565b610a70600180546001019055565b6000610a7b60015490565b6040805160e0810182528281526001600160a01b0387811660208084018281528486018a8152336060870181815260006080890181815260a08a018e815260c08b018381528d8452600598899052928c90209a518b55955160018b018054918b166001600160a01b0319928316179055945160028b0155915160038a018054918a1691861691909117905590516004808a01805492909916919094161790965591519286019290925592516006909401805494151560ff199095169490941790935592516323b872dd60e01b81529182015230602482015260448101869052919250906323b872dd90606401600060405180830381600087803b158015610b8157600080fd5b505af1158015610b95573d6000803e3d6000fd5b505060408051338152600060208201819052818301879052606082015290518693506001600160a01b038816925084917f045dfa01dcba2b36aba1d3dc4a874f4b0c5d2fbeb8d2c4b34a7d88c8d8f929d1919081900360800190a450610bfb6001600055565b505050565b610c086115c5565b3360009081526006602052604090205480610c5e5760405162461bcd60e51b81526020600482015260166024820152754e6f2070656e64696e67207769746864726177616c7360501b604482015260640161033d565b336000818152600660205260408082208290555190919083908381818185875af1925050503d8060008114610caf576040519150601f19603f3d011682016040523d82523d6000602084013e610cb4565b606091505b5050905080610cf95760405162461bcd60e51b815260206004820152601160248201527015da5d1a191c985dd85b0819985a5b1959607a1b604482015260640161033d565b6000336001600160a01b031660008051602061182483398151915284604051610997918152604060208201819052600a908201526915d2551211149055d05360b21b606082015260800190565b610d4e6115c5565b60008181526005602081905260409091209081015460028201546003909201549091906001600160a01b0316348314610df1576040805162461bcd60e51b81526020600482015260248101919091527f506c65617365207375626d6974207468652061736b696e67207072696365206960448201527f6e206f7264657220746f20636f6d706c65746520746865207075726368617365606482015260840161033d565b60008481526005602052604090206006015460ff1615610e535760405162461bcd60e51b815260206004820152601f60248201527f54686973206974656d2068617320616c7265616479206265656e20736f6c6400604482015260640161033d565b6001600160a01b038116331415610eac5760405162461bcd60e51b815260206004820152601b60248201527f596f752063616e6e6f742062757920796f7572206f776e204e46540000000000604482015260640161033d565b6004546000610ebb82346117db565b905081341015610f1e5760405162461bcd60e51b815260206004820152602860248201527f496e73756666696369656e74207061796d656e7420666f72206d61726b6574706044820152676c6163652066656560c01b606482015260840161033d565b60008111610f6e5760405162461bcd60e51b815260206004820152601d60248201527f496e76616c69642073656c6c6572207061796d656e7420616d6f756e74000000604482015260640161033d565b60008681526005602052604090206004810180546001600160a01b03191633179055600601805460ff19166001179055610fac600280546001019055565b6040516323b872dd60e01b8152306004820152336024820152604481018590526001600160a01b038816906323b872dd90606401600060405180830381600087803b158015610ffa57600080fd5b505af115801561100e573d6000803e3d6000fd5b505050506001600160a01b0383166000908152600660205260408120805483929061103a9084906117c3565b90915550506003546040516000916001600160a01b03169084908381818185875af1925050503d806000811461108c576040519150601f19603f3d011682016040523d82523d6000602084013e611091565b606091505b50509050806110ee5760405162461bcd60e51b8152602060048201526024808201527f5472616e7366657220746f206d61726b6574706c616365206f776e65722066616044820152631a5b195960e21b606482015260840161033d565b86846001600160a01b03166000805160206118248339815191528460405161113e918152604060208201819052600e908201526d14d15313115497d410565351539560921b606082015260800190565b60405180910390a360035460405188916001600160a01b0316906000805160206118248339815191529061119c90878152604060208201819052600f908201526e4d41524b4554504c4143455f46454560881b606082015260800190565b60405180910390a3604080513381526001600160a01b038681166020830152918101889052606081018590526080810184905286918a169089907f629cadcd430142dd9c11f4216494dcd6c02127ada59395b2ba41e867f654fae49060a00160405180910390a45050505050506112136001600055565b5050565b6112138282610d46565b61122961161f565b50600090815260056020818152604092839020835160e0810185528154815260018201546001600160a01b0390811693820193909352600282015494810194909452600381015482166060850152600481015490911660808401529081015460a08301526006015460ff16151560c082015290565b6112a66115c5565b33600090815260066020526040902054806112f95760405162461bcd60e51b81526020600482015260136024820152724e6f207061796d656e7420746f20636c61696d60681b604482015260640161033d565b336000818152600660205260408082208290555190919083908381818185875af1925050503d806000811461134a576040519150601f19603f3d011682016040523d82523d6000602084013e61134f565b606091505b50509050806113975760405162461bcd60e51b815260206004820152601460248201527314185e5b595b9d0818db185a5b4819985a5b195960621b604482015260640161033d565b6000336001600160a01b03166000805160206118248339815191528460405161099791815260406020820181905260059082015264434c41494d60d81b606082015260800190565b606060006113ec60015490565b905060008060005b8381101561144f57336005600061140c8460016117c3565b81526020810191909152604001600020600301546001600160a01b0316141561143d5761143a6001846117c3565b92505b80611447816117f2565b9150506113f4565b5060008267ffffffffffffffff81111561147957634e487b7160e01b600052604160045260246000fd5b6040519080825280602002602001820160405280156114b257816020015b61149f61161f565b8152602001906001900390816114975790505b50905060005b8481101561065f5733600560006114d08460016117c3565b81526020810191909152604001600020600301546001600160a01b031614156115b35760006115008260016117c3565b600081815260056020818152604092839020835160e0810185528154815260018201546001600160a01b0390811693820193909352600282015494810194909452600381015482166060850152600481015490911660808401529081015460a0830152600681015460ff16151560c083015285519293509185908790811061159857634e487b7160e01b600052603260045260246000fd5b60209081029190910101526115ae6001866117c3565b945050505b806115bd816117f2565b9150506114b8565b600260005414156116185760405162461bcd60e51b815260206004820152601f60248201527f5265656e7472616e637947756172643a207265656e7472616e742063616c6c00604482015260640161033d565b6002600055565b6040805160e081018252600080825260208201819052918101829052606081018290526080810182905260a0810182905260c081019190915290565b80356001600160a01b038116811461167257600080fd5b919050565b600060208284031215611688578081fd5b6116918261165b565b9392505050565b600080604083850312156116aa578081fd5b6116b38361165b565b946020939093013593505050565b6000806000606084860312156116d5578081fd5b6116de8461165b565b95602085013595506040909401359392505050565b600060208284031215611704578081fd5b5035919050565b80518252602081015160018060a01b03808216602085015260408301516040850152806060840151166060850152806080840151166080850152505060a081015160a083015260c0810151151560c08301525050565b6020808252825182820181905260009190848201906040850190845b818110156117a35761179083855161170b565b9284019260e0929092019160010161177d565b50909695505050505050565b60e081016117bd828461170b565b92915050565b600082198211156117d6576117d661180d565b500190565b6000828210156117ed576117ed61180d565b500390565b60006000198214156118065761180661180d565b5060010190565b634e487b7160e01b600052601160045260246000fdfe95b5e012d1d8d516107c00050740b69fc0a4eec5c057173f7d31acdeeb962254a2646970667358221220babd0999a50f5b7f8c9afd53a4b1e87a4ef178206472f2ff5bc42bebee7f009c64736f6c63430008040033",
  "linkReferences": {},
  "deployedLinkReferences": {}
}